{
  "contractName": "FlipContract",
  "abi": [
    {
      "inputs": [],
      "stateMutability": "nonpayable",
      "type": "constructor"
    },
    {
      "anonymous": false,
      "inputs": [
        {
          "indexed": false,
          "internalType": "address",
          "name": "user",
          "type": "address"
        },
        {
          "indexed": false,
          "internalType": "uint256",
          "name": "bet",
          "type": "uint256"
        },
        {
          "indexed": false,
          "internalType": "bool",
          "name": "win",
          "type": "bool"
        },
        {
          "indexed": false,
          "internalType": "uint8",
          "name": "side",
          "type": "uint8"
        }
      ],
      "name": "bet",
      "type": "event"
    },
    {
      "anonymous": false,
      "inputs": [
        {
          "indexed": false,
          "internalType": "address",
          "name": "owner",
          "type": "address"
        },
        {
          "indexed": false,
          "internalType": "uint256",
          "name": "funding",
          "type": "uint256"
        }
      ],
      "name": "funded",
      "type": "event"
    },
    {
      "anonymous": false,
      "inputs": [
        {
          "indexed": false,
          "internalType": "address",
          "name": "owner",
          "type": "address"
        },
        {
          "indexed": false,
          "internalType": "uint256",
          "name": "funding",
          "type": "uint256"
        }
      ],
      "name": "withdrew",
      "type": "event"
    },
    {
      "inputs": [
        {
          "internalType": "uint8",
          "name": "side",
          "type": "uint8"
        }
      ],
      "name": "flip",
      "outputs": [
        {
          "internalType": "bool",
          "name": "",
          "type": "bool"
        }
      ],
      "stateMutability": "payable",
      "type": "function",
      "payable": true
    },
    {
      "inputs": [],
      "name": "withdrawDappFunds",
      "outputs": [
        {
          "internalType": "uint256",
          "name": "",
          "type": "uint256"
        }
      ],
      "stateMutability": "nonpayable",
      "type": "function"
    },
    {
      "inputs": [],
      "name": "getBalance",
      "outputs": [
        {
          "internalType": "uint256",
          "name": "DApp_Balance",
          "type": "uint256"
        }
      ],
      "stateMutability": "view",
      "type": "function",
      "constant": true
    },
    {
      "inputs": [],
      "name": "fundDapp",
      "outputs": [],
      "stateMutability": "payable",
      "type": "function",
      "payable": true
    }
  ],
  "bytecode": "0x608060405234801561001057600080fd5b50336000806101000a81548173ffffffffffffffffffffffffffffffffffffffff021916908373ffffffffffffffffffffffffffffffffffffffff160217905550610b7e806100606000396000f3fe60806040526004361061003f5760003560e01c806312065fe0146100445780631b9a568b1461006f578063638c063714610079578063e77422a0146100a9575b600080fd5b34801561005057600080fd5b506100596100d4565b60405161006691906107cd565b60405180910390f35b6100776100de565b005b610093600480360381019061008e91906105cf565b610228565b6040516100a09190610732565b60405180910390f35b3480156100b557600080fd5b506100be61039c565b6040516100cb91906107cd565b60405180910390f35b6000600154905090565b60008054906101000a900473ffffffffffffffffffffffffffffffffffffffff1673ffffffffffffffffffffffffffffffffffffffff163373ffffffffffffffffffffffffffffffffffffffff161461016c576040517f08c379a0000000000000000000000000000000000000000000000000000000008152600401610163906107ad565b60405180910390fd5b600034116101af576040517f08c379a00000000000000000000000000000000000000000000000000000000081526004016101a69061074d565b60405180910390fd5b6000600154905034600160008282546101c891906107f9565b9250508190555034816101db91906107f9565b600154146101ec576101eb610963565b5b7fed7d0ddcc17abdb3935a0a23cd93e91b449dfeac7fd0def9f481ed5b37e18c4d333460405161021d9291906106c4565b60405180910390a150565b600080341161026c576040517f08c379a00000000000000000000000000000000000000000000000000000000081526004016102639061074d565b60405180910390fd5b600234610279919061084f565b60015410156102bd576040517f08c379a00000000000000000000000000000000000000000000000000000000081526004016102b49061076d565b60405180910390fd5b60008260ff1614806102d2575060018260ff16145b610311576040517f08c379a00000000000000000000000000000000000000000000000000000000081526004016103089061078d565b60405180910390fd5b60008260ff166002426103249190610932565b141561033b576103326104ab565b60019050610359565b346001600082825461034d91906107f9565b92505081905550600090505b7f271b3e8d94a67ce5e9cee03d78c310019308ea7075468a4eb2bac8b027b14c4d3334838660405161038e94939291906106ed565b60405180910390a150919050565b60008060009054906101000a900473ffffffffffffffffffffffffffffffffffffffff1673ffffffffffffffffffffffffffffffffffffffff163373ffffffffffffffffffffffffffffffffffffffff161461042d576040517f08c379a0000000000000000000000000000000000000000000000000000000008152600401610424906107ad565b60405180910390fd5b61043561054a565b60006001541461044857610447610963565b5b7fdce8ef622c146fe081ef97e5c6d283094660af46773617c3ca4aadc02ec8b38760008054906101000a900473ffffffffffffffffffffffffffffffffffffffff1660015460405161049b9291906106c4565b60405180910390a1600154905090565b6000600154905060006002346104c1919061084f565b9050600033905081600160008282546104da91906108a9565b925050819055508073ffffffffffffffffffffffffffffffffffffffff166108fc839081150290604051600060405180830381858888f19350505050158015610527573d6000803e3d6000fd5b50818361053491906108a9565b6001541461054557610544610963565b5b505050565b600033905060006001549050806001600082825461056891906108a9565b925050819055508173ffffffffffffffffffffffffffffffffffffffff166108fc829081150290604051600060405180830381858888f193505050501580156105b5573d6000803e3d6000fd5b505050565b6000813590506105c981610b31565b92915050565b6000602082840312156105e5576105e46109f0565b5b60006105f3848285016105ba565b91505092915050565b610605816108dd565b82525050565b610614816108ef565b82525050565b60006106276025836107e8565b9150610632826109f5565b604082019050919050565b600061064a603f836107e8565b915061065582610a44565b604082019050919050565b600061066d602e836107e8565b915061067882610a93565b604082019050919050565b60006106906026836107e8565b915061069b82610ae2565b604082019050919050565b6106af8161091b565b82525050565b6106be81610925565b82525050565b60006040820190506106d960008301856105fc565b6106e660208301846106a6565b9392505050565b600060808201905061070260008301876105fc565b61070f60208301866106a6565b61071c604083018561060b565b61072960608301846106b5565b95945050505050565b6000602082019050610747600083018461060b565b92915050565b600060208201905081810360008301526107668161061a565b9050919050565b600060208201905081810360008301526107868161063d565b9050919050565b600060208201905081810360008301526107a681610660565b9050919050565b600060208201905081810360008301526107c681610683565b9050919050565b60006020820190506107e260008301846106a6565b92915050565b600082825260208201905092915050565b60006108048261091b565b915061080f8361091b565b9250827fffffffffffffffffffffffffffffffffffffffffffffffffffffffffffffffff0382111561084457610843610992565b5b828201905092915050565b600061085a8261091b565b91506108658361091b565b9250817fffffffffffffffffffffffffffffffffffffffffffffffffffffffffffffffff048311821515161561089e5761089d610992565b5b828202905092915050565b60006108b48261091b565b91506108bf8361091b565b9250828210156108d2576108d1610992565b5b828203905092915050565b60006108e8826108fb565b9050919050565b60008115159050919050565b600073ffffffffffffffffffffffffffffffffffffffff82169050919050565b6000819050919050565b600060ff82169050919050565b600061093d8261091b565b91506109488361091b565b925082610958576109576109c1565b5b828206905092915050565b7f4e487b7100000000000000000000000000000000000000000000000000000000600052600160045260246000fd5b7f4e487b7100000000000000000000000000000000000000000000000000000000600052601160045260246000fd5b7f4e487b7100000000000000000000000000000000000000000000000000000000600052601260045260246000fd5b600080fd5b7f4153412c2076616c7565206d7573742062652067726561746572207468616e2060008201527f7a65726f21000000000000000000000000000000000000000000000000000000602082015250565b7f4153412c20536f7272792062757420636f6e747261637420646f6573206e6f7460008201527f206861766520656e6f7567682066756e647320746f20636f7665722062657400602082015250565b7f4153412c20456e74727920696e636f7272656374212073696465206e6565647360008201527f20746f2062652031206f7220302e000000000000000000000000000000000000602082015250565b7f4153412c204f6e6c79206f776e6572206d61792075736520746869732066756e60008201527f6374696f6e210000000000000000000000000000000000000000000000000000602082015250565b610b3a81610925565b8114610b4557600080fd5b5056fea2646970667358221220cb6e50ef06362841776af1a491f2e32ed9bc7ff0747c954bee461f105b1c393064736f6c63430008070033",
  "immutableReferences": {},
  "source": "pragma solidity 0.8.7;\r\n\r\ncontract FlipContract{\r\n    address owner;\r\n    uint DappBalance;\r\n\r\n    mapping(address => uint) balance;\r\n\r\n    constructor(){\r\n        owner = msg.sender;\r\n    }\r\n\r\n    modifier onlyOwner {\r\n        require(msg.sender == owner, 'ASA, Only owner may use this function!');\r\n        _;\r\n    }\r\n\r\n    modifier greaterThanZero{\r\n        require(msg.value > 0, \"ASA, value must be greater than zero!\");\r\n        _;\r\n\r\n    }\r\n\r\n    event bet(address user, uint bet, bool win, uint8 side);\r\n    event funded(address owner, uint funding);\r\n    event withdrew(address owner, uint funding);\r\n\r\n    function flip(uint8 side) public payable  greaterThanZero returns(bool){\r\n        require(DappBalance >= msg.value * 2, \"ASA, Sorry but contract does not have enough funds to cover bet\");\r\n       \r\n        require(side == 0 || side == 1, \"ASA, Entry incorrect! side needs to be 1 or 0.\");\r\n\r\n        bool win;\r\n\r\n        if(block.timestamp % 2 == side){\r\n\r\n            _winner();\r\n            win = true;\r\n\r\n        }else{\r\n            DappBalance+= msg.value;\r\n            win = false;\r\n        }\r\n\r\n        emit bet(msg.sender, msg.value, win, side);\r\n\r\n\r\n    }\r\n\r\n    function _winner() private {\r\n        uint previousDappBalance = DappBalance;\r\n        uint reward = msg.value * 2;\r\n\r\n        address payable userAddress = payable(msg.sender);\r\n        \r\n        \r\n        DappBalance-=reward;\r\n        userAddress.transfer(reward);\r\n        \r\n        \r\n        assert(DappBalance == previousDappBalance - reward);\r\n    }\r\n\r\n    function withdrawDappFunds() public onlyOwner returns(uint){\r\n        \r\n        _withdrawDappFunds();\r\n\r\n        assert(DappBalance == 0);\r\n        emit withdrew(owner, DappBalance);\r\n\r\n        return DappBalance;\r\n    }\r\n\r\n    function _withdrawDappFunds() private {\r\n        \r\n        address payable ownerAddress = payable(msg.sender);\r\n        uint totalAmount = DappBalance;\r\n\r\n        DappBalance-= totalAmount;\r\n\r\n        ownerAddress.transfer(totalAmount);\r\n\r\n    }\r\n\r\n    function getBalance() public view returns (uint DApp_Balance) {\r\n        \r\n        return DappBalance;\r\n    }\r\n\r\n    function fundDapp() public payable onlyOwner greaterThanZero {\r\n        uint PreviousDappBalance = DappBalance;\r\n\r\n        DappBalance+= msg.value;\r\n\r\n        assert(DappBalance == PreviousDappBalance + msg.value);\r\n        emit funded(msg.sender, msg.value);\r\n    }\r\n\r\n\r\n}",
  "sourcePath": "E:/Web3 Games/coinflipTestNet/truffle/contracts/flipcontract.sol",
  "compiler": {
    "name": "solc",
    "version": "0.8.7+commit.e28d00a7.Emscripten.clang"
  },
  "schemaVersion": "3.3.4",
  "updatedAt": "2021-09-23T09:49:58.973Z",
  "networkType": "ethereum",
  "devdoc": {
    "kind": "dev",
    "methods": {},
    "version": 1
  },
  "userdoc": {
    "kind": "user",
    "methods": {},
    "version": 1
  }
}